:100000000C9456000C9473000C9473000C947300C1
:100010000C9473000C9473000C9473000C94730094
:100020000C9473000C9473000C9473000C94730084
:100030000C9473000C9473000C9473000C94730074
:100040000C9473000C9473000C9473000C94730064
:100050000C9473000C9473000C9473000C94730054
:100060000C9473000C9473000C9473000C94730044
:100070000C9473000C9473000C9473000C94730034
:100080000C9473000C9473000C9473000C94730024
:100090000C9473000C9473000C9473000C94730014
:1000A0000C9473000C9473000C94730011241FBE05
:1000B000CFEFDAE0DEBFCDBF11E0A0E0B1E0E0EFCE
:1000C000F1E002C005900D92A432B107D9F721E00A
:1000D000A4E2B1E001C01D92A632B207E1F70E948E
:1000E000D0000C94F6000C9400009091C80095FF8D
:1000F000FCCF8093CE000895CF93DF93EC018991DC
:10010000882319F00E947500FACFDF91CF910895EE
:100110008091CE000895CF93DF93EC01623071059A
:1001200081F034F46130710599F480E091E00EC003
:100130006330710549F06430710551F485E191E057
:1001400005C087E091E002C08EE091E00E947C0053
:10015000CE010E947C0081E291E0DF91CF910C946E
:100160007C001092B90081E08093BC00089584EA7D
:100170008093BC008091BC0087FFFCCF089584E988
:100180008093BC0008958093BB0084E88093BC00FA
:100190008091BC0087FFFCCF08958091B90008953D
:1001A0001092CD0087E68093CC0080E18093C90057
:1001B00098E09093C9008AB980E28AB980E487B94F
:1001C00081E084B982E18093B8000E94B1000E946E
:1001D000B7008EE790E00E94C3000E94CD008AEA3B
:1001E00090E00E94C3000E94BF00F1CFF894FFCFBF
:1001F0005B4D53475D20005B4442475D20005B45FB
:1002000052525D20005B435249544943414C5D20AA
:04021000000A0D00D3
:00000001FF
