:100000000C9456000C946B000C946B000C946B00D9
:100010000C946B000C946B000C946B000C946B00B4
:100020000C946B000C946B000C946B000C946B00A4
:100030000C946B000C946B000C946B000C946B0094
:100040000C946B000C946B000C946B000C946B0084
:100050000C946B000C946B000C946B000C946B0074
:100060000C946B000C946B000C946B000C946B0064
:100070000C946B000C946B000C946B000C946B0054
:100080000C946B000C946B000C946B000C946B0044
:100090000C946B000C946B000C946B000C946B0034
:1000A0000C946B000C946B000C946B0011241FBE1D
:1000B000CFEFDAE0DEBFCDBF11E0A0E0B1E0E6E4D3
:1000C000F3E002C005900D92A432B107D9F70E9467
:1000D0007B010C94A1010C9400009091C80095FF45
:1000E000FCCF8093CE000895CF93DF93EC018991EC
:1000F000882319F00E946D00FACFDF91CF91089507
:100100008091CE0008951F93CF93DF93C82F182FAF
:10011000107FD12FD8606D2F8EE70E943501612F9F
:100120006C608EE70E9435016D2F8EE70E943501CD
:1001300068E08EE70E94350180E1C802E0011124E9
:10014000DC2FD8606D2F8EE70E9435016C2F6C601C
:100150008EE70E9435016D2F8EE70E94350168E021
:100160008EE7DF91CF911F910C94350168E28EE705
:100170000E9435016CE28EE70E94350168E28EE74D
:100180000E94350168E08EE70E94350188E20E94F6
:1001900083008EE00E94830086E00E94830082E05C
:1001A0000C9483001F93CF93DF93C82F182F107FD9
:1001B000D12FD9606D2F8EE70E943501612F6D60C0
:1001C0008EE70E9435016D2F8EE70E94350169E0B0
:1001D0008EE70E94350180E1C802E0011124DC2F86
:1001E000D9606D2F8EE70E9435016C2F6D608EE710
:1001F0000E9435016D2F8EE70E94350169E08EE780
:10020000DF91CF911F910C943501CF93DF93EC01D7
:100210008991882319F00E94D200FACFDF91CF9103
:10022000089582E00C9483001092B90081E08093DD
:10023000BC00089584EA8093BC008091BC0087FFD5
:10024000FCCF089584E98093BC0008958093BB009F
:1002500084E88093BC008091BC0087FFFCCF0895A8
:1002600008958091B900887F0895CF93DF9300D0DF
:10027000CDB7DEB76A8389830E941A0189810E9403
:1002800026018091B9006A81862F0E94260184E9A7
:100290008093BC008FE891E00197F1F700C0000067
:1002A0000F900F90DF91CF910895CF93DF93EC01E2
:1002B0006230710581F034F46130710599F480E0A9
:1002C00091E00EC06330710549F06430710551F45E
:1002D00085E191E005C087E091E002C08EE091E009
:1002E0000E947400CE010E94740081E291E0DF91CF
:1002F000CF910C9474001092CD0087E68093CC00CF
:1003000080E18093C90098E09093C9008AB980E2A7
:100310008AB980E487B981E084B982E18093B8002A
:100320000E94140160E08EE70E9435010E941A01CC
:1003300080ED90E00E9426010E9431010E9422017E
:06034000F5CFF894FFCF99
:100346005B4D53475D20005B4442475D20005B45A3
:1003560052525D20005B435249544943414C5D2053
:04036600000A0D007C
:00000001FF
