:100000000C9456000C9473000C9473000C947300C1
:100010000C9473000C9473000C9473000C94730094
:100020000C9473000C9473000C9473000C94730084
:100030000C9473000C9473000C9473000C94730074
:100040000C9473000C9473000C9473000C94730064
:100050000C9473000C9473000C9473000C94730054
:100060000C9473000C9473000C9473000C94730044
:100070000C9473000C9473000C9473000C94730034
:100080000C9473000C9473000C9473000C94730024
:100090000C9473000C9473000C9473000C94730014
:1000A0000C9473000C9473000C94730011241FBE05
:1000B000CFEFDAE0DEBFCDBF11E0A0E0B1E0E4EFCA
:1000C000F1E002C005900D92A432B107D9F721E00A
:1000D000A4E2B1E001C01D92A632B207E1F70E948E
:1000E000B1000C94F8000C9400009091C80095FFAA
:1000F000FCCF8093CE000895CF93DF93EC018991DC
:10010000882319F00E947500FACFDF91CF910895EE
:100110008091CE000895CF93DF93EC01623071059A
:1001200081F034F46130710599F480E091E00EC003
:100130006330710549F06430710551F485E191E057
:1001400005C087E091E002C08EE091E00E947C0053
:10015000CE010E947C0081E291E0DF91CF910C946E
:100160007C001092CD0087E68093CC0080E18093E4
:10017000C90098E09093C9008AB980E28AB980E406
:1001800087B981E084B990E4809124018530D4F46A
:1001900098B92FEF31EE84E0215030408040E1F7F4
:1001A00000C0000018B82FEF31EE84E0215030403D
:1001B0008040E1F700C00000809124018F5F8093B0
:1001C0002401E2CF80E28BB99FEF23ED30E3915021
:1001D00020403040E1F700C000001BB89FEF23ED46
:1001E00030E3915020403040E1F700C00000EBCFF9
:0401F000F894FFCFB1
:1001F4005B4D53475D20005B4442475D20005B45F7
:1002040052525D20005B435249544943414C5D20A6
:04021400000A0D00CF
:00000001FF
